{
  "transactions": [
    {
      "hash": "0x6cbffc7ad120a34082f1d1b54d70d7b0979935a5300548d6643f817b7426394d",
      "transactionType": "CALL",
      "contractName": null,
      "contractAddress": "0xe7f1725e7734ce288f8367e1bb143e90bb3f0512",
      "function": "mint(address,uint256)",
      "arguments": [
        "0x70997970C51812dc3A010C7d01b50e0d17dc79C8",
        "10000000000000000000"
      ],
      "transaction": {
        "from": "0xf39fd6e51aad88f6f4ce6ab8827279cfffb92266",
        "to": "0xe7f1725e7734ce288f8367e1bb143e90bb3f0512",
        "gas": "0x17123",
        "value": "0x0",
        "input": "0x40c10f1900000000000000000000000070997970c51812dc3a010c7d01b50e0d17dc79c80000000000000000000000000000000000000000000000008ac7230489e80000",
        "nonce": "0x9",
        "chainId": "0x7a69"
      },
      "additionalContracts": [],
      "isFixedGasLimit": false
    },
    {
      "hash": "0x7e5b1c0cc0b57aa0770f9873c7141ca5b0d4352e93e7def44742adfb03defdf6",
      "transactionType": "CALL",
      "contractName": null,
      "contractAddress": "0xe7f1725e7734ce288f8367e1bb143e90bb3f0512",
      "function": "mint(address,uint256)",
      "arguments": [
        "0x3C44CdDdB6a900fa2b585dd299e03d12FA4293BC",
        "14000000000000000000"
      ],
      "transaction": {
        "from": "0xf39fd6e51aad88f6f4ce6ab8827279cfffb92266",
        "to": "0xe7f1725e7734ce288f8367e1bb143e90bb3f0512",
        "gas": "0x114cf",
        "value": "0x0",
        "input": "0x40c10f190000000000000000000000003c44cdddb6a900fa2b585dd299e03d12fa4293bc000000000000000000000000000000000000000000000000c249fdd327780000",
        "nonce": "0xa",
        "chainId": "0x7a69"
      },
      "additionalContracts": [],
      "isFixedGasLimit": false
    },
    {
      "hash": "0x002ce558249e8f0920d16f3d62623d87d203c8a76213345747d56242af4a161f",
      "transactionType": "CALL",
      "contractName": null,
      "contractAddress": "0xdc64a140aa3e981100a9beca4e685f962f0cf6c9",
      "function": "announceAction(address,uint8,uint256,uint64,uint64,uint64,address,string)",
      "arguments": [
        "0xe7f1725E7734CE288F8367e1Bb143E90bb3F0512",
        "0",
        "500000000000000000",
        "3",
        "1781117154",
        "1781721954",
        "0x5FbDB2315678afecb367f032d93F642f64180aa3",
        "ipfs://corporax/demo/tsla-q2-2026.json"
      ],
      "transaction": {
        "from": "0xf39fd6e51aad88f6f4ce6ab8827279cfffb92266",
        "to": "0xdc64a140aa3e981100a9beca4e685f962f0cf6c9",
        "gas": "0x5440d",
        "value": "0x0",
        "input": "0xf43ffdc0000000000000000000000000e7f1725e7734ce288f8367e1bb143e90bb3f0512000000000000000000000000000000000000000000000000000000000000000000000000000000000000000000000000000000000000000006f05b59d3b200000000000000000000000000000000000000000000000000000000000000000003000000000000000000000000000000000000000000000000000000006a29b0e2000000000000000000000000000000000000000000000000000000006a32eb620000000000000000000000005fbdb2315678afecb367f032d93f642f64180aa300000000000000000000000000000000000000000000000000000000000001000000000000000000000000000000000000000000000000000000000000000026697066733a2f2f636f72706f7261782f64656d6f2f74736c612d71322d323032362e6a736f6e0000000000000000000000000000000000000000000000000000",
        "nonce": "0xb",
        "chainId": "0x7a69"
      },
      "additionalContracts": [],
      "isFixedGasLimit": false
    },
    {
      "hash": "0xf55391f5f68acb0e3610e34722613046104be0e6a7d3bcff485951cfda55667b",
      "transactionType": "CALL",
      "contractName": null,
      "contractAddress": "0xdc64a140aa3e981100a9beca4e685f962f0cf6c9",
      "function": "publishRoot(uint256,bytes32,uint256,uint256)",
      "arguments": [
        "1",
        "0x9daa2db93985d682fb9490802adb983d82f4922fc23cb599506238e84fd05a21",
        "12000000000000000000",
        "2"
      ],
      "transaction": {
        "from": "0xf39fd6e51aad88f6f4ce6ab8827279cfffb92266",
        "to": "0xdc64a140aa3e981100a9beca4e685f962f0cf6c9",
        "gas": "0x231b7",
        "value": "0x0",
        "input": "0xffa1c41200000000000000000000000000000000000000000000000000000000000000019daa2db93985d682fb9490802adb983d82f4922fc23cb599506238e84fd05a21000000000000000000000000000000000000000000000000a688906bd8b000000000000000000000000000000000000000000000000000000000000000000002",
        "nonce": "0xc",
        "chainId": "0x7a69"
      },
      "additionalContracts": [],
      "isFixedGasLimit": false
    },
    {
      "hash": "0xc60939ccac866d2c12854b45d260f16fedf1f37731e16a10c5eee73bc015bd05",
      "transactionType": "CALL",
      "contractName": null,
      "contractAddress": "0x5fbdb2315678afecb367f032d93f642f64180aa3",
      "function": "mint(address,uint256)",
      "arguments": [
        "0xf39Fd6e51aad88F6F4ce6aB8827279cffFb92266",
        "12000000000000000000"
      ],
      "transaction": {
        "from": "0xf39fd6e51aad88f6f4ce6ab8827279cfffb92266",
        "to": "0x5fbdb2315678afecb367f032d93f642f64180aa3",
        "gas": "0x17123",
        "value": "0x0",
        "input": "0x40c10f19000000000000000000000000f39fd6e51aad88f6f4ce6ab8827279cfffb92266000000000000000000000000000000000000000000000000a688906bd8b00000",
        "nonce": "0xd",
        "chainId": "0x7a69"
      },
      "additionalContracts": [],
      "isFixedGasLimit": false
    },
    {
      "hash": "0xbfc358ee7d84f94756cb5523407d43a487da1f553aa91f168c480d11db8ee94f",
      "transactionType": "CALL",
      "contractName": null,
      "contractAddress": "0x5fbdb2315678afecb367f032d93f642f64180aa3",
      "function": "approve(address,uint256)",
      "arguments": [
        "0x5FC8d32690cc91D4c39d9d3abcBD16989F875707",
        "12000000000000000000"
      ],
      "transaction": {
        "from": "0xf39fd6e51aad88f6f4ce6ab8827279cfffb92266",
        "to": "0x5fbdb2315678afecb367f032d93f642f64180aa3",
        "gas": "0xfa2b",
        "value": "0x0",
        "input": "0x095ea7b30000000000000000000000005fc8d32690cc91d4c39d9d3abcbd16989f875707000000000000000000000000000000000000000000000000a688906bd8b00000",
        "nonce": "0xe",
        "chainId": "0x7a69"
      },
      "additionalContracts": [],
      "isFixedGasLimit": false
    },
    {
      "hash": "0x9573d7f98c0d32c37c2dc6ee44b39a0d84eda56f0096fb83f8d64e63f09d575e",
      "transactionType": "CALL",
      "contractName": null,
      "contractAddress": "0x5fc8d32690cc91d4c39d9d3abcbd16989f875707",
      "function": "fund(uint256,uint256)",
      "arguments": [
        "1",
        "12000000000000000000"
      ],
      "transaction": {
        "from": "0xf39fd6e51aad88f6f4ce6ab8827279cfffb92266",
        "to": "0x5fc8d32690cc91d4c39d9d3abcbd16989f875707",
        "gas": "0x2496e",
        "value": "0x0",
        "input": "0xa65e2cfd0000000000000000000000000000000000000000000000000000000000000001000000000000000000000000000000000000000000000000a688906bd8b00000",
        "nonce": "0xf",
        "chainId": "0x7a69"
      },
      "additionalContracts": [],
      "isFixedGasLimit": false
    }
  ],
  "receipts": [
    {
      "status": "0x1",
      "cumulativeGasUsed": "0x10b40",
      "logs": [
        {
          "address": "0xe7f1725e7734ce288f8367e1bb143e90bb3f0512",
          "topics": [
            "0xddf252ad1be2c89b69c2b068fc378daa952ba7f163c4a11628f55a4df523b3ef",
            "0x0000000000000000000000000000000000000000000000000000000000000000",
            "0x00000000000000000000000070997970c51812dc3a010c7d01b50e0d17dc79c8"
          ],
          "data": "0x0000000000000000000000000000000000000000000000008ac7230489e80000",
          "blockHash": "0xcf30578cf43b62a58d55ce12b6703ba56fc38359a0d659c568733a396b5bf533",
          "blockNumber": "0x5",
          "blockTimestamp": "0x6a29b0e7",
          "transactionHash": "0x6cbffc7ad120a34082f1d1b54d70d7b0979935a5300548d6643f817b7426394d",
          "transactionIndex": "0x0",
          "logIndex": "0x0",
          "removed": false
        }
      ],
      "logsBloom": "0x00000000000000000002000000000000000000000000000000000000000000000000000000000000000000000000000010000000000000000000000000000000000000000000000000000008000000000000000000000000000000000000000000000800020000000000000000000800000000000000000000000010000000000000000000000000000000000000000000000000000000000000000000000000000000000000000000000000000000000000000000000000000000000000000000000002000000000000000000001000000000000000000000000000000020000000000000000000000000000000000001000000000000800000000000000000",
      "type": "0x2",
      "transactionHash": "0x6cbffc7ad120a34082f1d1b54d70d7b0979935a5300548d6643f817b7426394d",
      "transactionIndex": "0x0",
      "blockHash": "0xcf30578cf43b62a58d55ce12b6703ba56fc38359a0d659c568733a396b5bf533",
      "blockNumber": "0x5",
      "gasUsed": "0x10b40",
      "effectiveGasPrice": "0x24bc968e",
      "blobGasPrice": "0x1",
      "from": "0xf39fd6e51aad88f6f4ce6ab8827279cfffb92266",
      "to": "0xe7f1725e7734ce288f8367e1bb143e90bb3f0512",
      "contractAddress": null
    },
    {
      "status": "0x1",
      "cumulativeGasUsed": "0xc868",
      "logs": [
        {
          "address": "0xe7f1725e7734ce288f8367e1bb143e90bb3f0512",
          "topics": [
            "0xddf252ad1be2c89b69c2b068fc378daa952ba7f163c4a11628f55a4df523b3ef",
            "0x0000000000000000000000000000000000000000000000000000000000000000",
            "0x0000000000000000000000003c44cdddb6a900fa2b585dd299e03d12fa4293bc"
          ],
          "data": "0x000000000000000000000000000000000000000000000000c249fdd327780000",
          "blockHash": "0x6f06588b12d4ff7b59fefe39e2a55d65a8242be904ebb72fa07e5b2046ce7ec8",
          "blockNumber": "0x6",
          "blockTimestamp": "0x6a29b0e7",
          "transactionHash": "0x002ce558249e8f0920d16f3d62623d87d203c8a76213345747d56242af4a161f",
          "transactionIndex": "0x0",
          "logIndex": "0x0",
          "removed": false
        }
      ],
      "logsBloom": "0x00000000000000000000000000000000000000000000000000000000000000000000000000000000000000000000000010000000000000000000000000100000000000000000000000000008000000000000000000000000000000000000000000000000020000000000000000000800000800000000000000000010000000000000000000000000000000000000000000000000000000000000000000000000000000000000200000000000000000000000000000000000000000000000000000000002000000000000000000001000000000000000000000000000000020000000000000000000000000000000000000000000000000800000000000000000",
      "type": "0x2",
      "transactionHash": "0x002ce558249e8f0920d16f3d62623d87d203c8a76213345747d56242af4a161f",
      "transactionIndex": "0x0",
      "blockHash": "0x6f06588b12d4ff7b59fefe39e2a55d65a8242be904ebb72fa07e5b2046ce7ec8",
      "blockNumber": "0x6",
      "gasUsed": "0xc868",
      "effectiveGasPrice": "0x202a6060",
      "blobGasPrice": "0x1",
      "from": "0xf39fd6e51aad88f6f4ce6ab8827279cfffb92266",
      "to": "0xe7f1725e7734ce288f8367e1bb143e90bb3f0512",
      "contractAddress": null
    },
    {
      "status": "0x1",
      "cumulativeGasUsed": "0x49860",
      "logs": [
        {
          "address": "0xdc64a140aa3e981100a9beca4e685f962f0cf6c9",
          "topics": [
            "0xef22903dbbfe0deab39fce011a30d55794838d707c548cb111d63328d32b09e6",
            "0x0000000000000000000000000000000000000000000000000000000000000001",
            "0x000000000000000000000000e7f1725e7734ce288f8367e1bb143e90bb3f0512"
          ],
          "data": "0x000000000000000000000000000000000000000000000000000000000000000000000000000000000000000000000000000000000000000006f05b59d3b200000000000000000000000000000000000000000000000000000000000000000003000000000000000000000000000000000000000000000000000000006a29b0e2000000000000000000000000000000000000000000000000000000006a32eb620000000000000000000000005fbdb2315678afecb367f032d93f642f64180aa300000000000000000000000000000000000000000000000000000000000000e00000000000000000000000000000000000000000000000000000000000000026697066733a2f2f636f72706f7261782f64656d6f2f74736c612d71322d323032362e6a736f6e0000000000000000000000000000000000000000000000000000",
          "blockHash": "0x6f06588b12d4ff7b59fefe39e2a55d65a8242be904ebb72fa07e5b2046ce7ec8",
          "blockNumber": "0x6",
          "blockTimestamp": "0x6a29b0e7",
          "transactionHash": "0x7e5b1c0cc0b57aa0770f9873c7141ca5b0d4352e93e7def44742adfb03defdf6",
          "transactionIndex": "0x1",
          "logIndex": "0x1",
          "removed": false
        }
      ],
      "logsBloom": "0x00000000008000000400000000000000000000000000000000000000000400000000000000000000000000000000000000000000000000000000000000040000000000000000000000000000000000000000000000040000000000000000000000000000000000000000000000000000000000000000000000000004000000000000000000000000000000000000000000000000000000000000000000000000000000000000000000000002000040000000000000000000000000000000000000000000000000000000000000000000000000000020000000000000000040000000000000000000000000000000000000000001000000000100000000000000",
      "type": "0x2",
      "transactionHash": "0x7e5b1c0cc0b57aa0770f9873c7141ca5b0d4352e93e7def44742adfb03defdf6",
      "transactionIndex": "0x1",
      "blockHash": "0x6f06588b12d4ff7b59fefe39e2a55d65a8242be904ebb72fa07e5b2046ce7ec8",
      "blockNumber": "0x6",
      "gasUsed": "0x3cff8",
      "effectiveGasPrice": "0x202a6060",
      "blobGasPrice": "0x1",
      "from": "0xf39fd6e51aad88f6f4ce6ab8827279cfffb92266",
      "to": "0xdc64a140aa3e981100a9beca4e685f962f0cf6c9",
      "contractAddress": null
    },
    {
      "status": "0x1",
      "cumulativeGasUsed": "0x196ad",
      "logs": [
        {
          "address": "0xdc64a140aa3e981100a9beca4e685f962f0cf6c9",
          "topics": [
            "0xbf05e1cf2347c8f6a6c63f13c66a0b87ee6ebc0fe088327380f5073bd9f14021",
            "0x0000000000000000000000000000000000000000000000000000000000000001"
          ],
          "data": "0x00000000000000000000000000000000000000000000000000000000000000000000000000000000000000000000000000000000000000000000000000000001",
          "blockHash": "0xc15e87b69c154f7c18f8e1d654d0b7b27f4b69149c51db5308ce896bd71bf631",
          "blockNumber": "0x7",
          "blockTimestamp": "0x6a29b0e7",
          "transactionHash": "0xbfc358ee7d84f94756cb5523407d43a487da1f553aa91f168c480d11db8ee94f",
          "transactionIndex": "0x0",
          "logIndex": "0x0",
          "removed": false
        },
        {
          "address": "0xdc64a140aa3e981100a9beca4e685f962f0cf6c9",
          "topics": [
            "0xcd89282af27837818f27b051d259c491396c1d55b4a398a184faf6c23296dc1a",
            "0x0000000000000000000000000000000000000000000000000000000000000001"
          ],
          "data": "0x9daa2db93985d682fb9490802adb983d82f4922fc23cb599506238e84fd05a21000000000000000000000000000000000000000000000000a688906bd8b000000000000000000000000000000000000000000000000000000000000000000002",
          "blockHash": "0xc15e87b69c154f7c18f8e1d654d0b7b27f4b69149c51db5308ce896bd71bf631",
          "blockNumber": "0x7",
          "blockTimestamp": "0x6a29b0e7",
          "transactionHash": "0xbfc358ee7d84f94756cb5523407d43a487da1f553aa91f168c480d11db8ee94f",
          "transactionIndex": "0x0",
          "logIndex": "0x1",
          "removed": false
        }
      ],
      "logsBloom": "0x00000040000000000000000000000000000000000000000000000000000100000000000000000000000000000000010000000000000000000000000000040000000000000000000000000000000000004000000000040000000000000000000000000000000000000000000000000000000000000000000000000000000000000000000000000000000000000000000000000000040000000000000000000000000000000000000000000000000000000000000000000000000000000000000000000000000000000000000000000200000000000020000000000000000040000000000000000000000000000000000000000001000000000100000000000000",
      "type": "0x2",
      "transactionHash": "0xbfc358ee7d84f94756cb5523407d43a487da1f553aa91f168c480d11db8ee94f",
      "transactionIndex": "0x0",
      "blockHash": "0xc15e87b69c154f7c18f8e1d654d0b7b27f4b69149c51db5308ce896bd71bf631",
      "blockNumber": "0x7",
      "gasUsed": "0x196ad",
      "effectiveGasPrice": "0x1c39be91",
      "blobGasPrice": "0x1",
      "from": "0xf39fd6e51aad88f6f4ce6ab8827279cfffb92266",
      "to": "0xdc64a140aa3e981100a9beca4e685f962f0cf6c9",
      "contractAddress": null
    },
    {
      "status": "0x1",
      "cumulativeGasUsed": "0x2a1ed",
      "logs": [
        {
          "address": "0x5fbdb2315678afecb367f032d93f642f64180aa3",
          "topics": [
            "0xddf252ad1be2c89b69c2b068fc378daa952ba7f163c4a11628f55a4df523b3ef",
            "0x0000000000000000000000000000000000000000000000000000000000000000",
            "0x000000000000000000000000f39fd6e51aad88f6f4ce6ab8827279cfffb92266"
          ],
          "data": "0x000000000000000000000000000000000000000000000000a688906bd8b00000",
          "blockHash": "0xc15e87b69c154f7c18f8e1d654d0b7b27f4b69149c51db5308ce896bd71bf631",
          "blockNumber": "0x7",
          "blockTimestamp": "0x6a29b0e7",
          "transactionHash": "0xc60939ccac866d2c12854b45d260f16fedf1f37731e16a10c5eee73bc015bd05",
          "transactionIndex": "0x1",
          "logIndex": "0x2",
          "removed": false
        }
      ],
      "logsBloom": "0x00000000000000000000000000000000000000000000000000000000000000000000000000000000000000000000000000000000000000000000000000000000000000000000000000000008000000000000000000000000000000000000000000000040020000000000000100000800000000000000000000000010000000000000000000000000000000000000000000000000000000000000000200000000000000000000000000000000000000000000000000000000000000000000000000000042000000200000000000000000000000002000000000000000000020000000000000000000000000000000000000000000000000000000000000000000",
      "type": "0x2",
      "transactionHash": "0xc60939ccac866d2c12854b45d260f16fedf1f37731e16a10c5eee73bc015bd05",
      "transactionIndex": "0x1",
      "blockHash": "0xc15e87b69c154f7c18f8e1d654d0b7b27f4b69149c51db5308ce896bd71bf631",
      "blockNumber": "0x7",
      "gasUsed": "0x10b40",
      "effectiveGasPrice": "0x1c39be91",
      "blobGasPrice": "0x1",
      "from": "0xf39fd6e51aad88f6f4ce6ab8827279cfffb92266",
      "to": "0x5fbdb2315678afecb367f032d93f642f64180aa3",
      "contractAddress": null
    },
    {
      "status": "0x1",
      "cumulativeGasUsed": "0x3570c",
      "logs": [
        {
          "address": "0x5fbdb2315678afecb367f032d93f642f64180aa3",
          "topics": [
            "0x8c5be1e5ebec7d5bd14f71427d1e84f3dd0314c0f7b2291e5b200ac8c7c3b925",
            "0x000000000000000000000000f39fd6e51aad88f6f4ce6ab8827279cfffb92266",
            "0x0000000000000000000000005fc8d32690cc91d4c39d9d3abcbd16989f875707"
          ],
          "data": "0x000000000000000000000000000000000000000000000000a688906bd8b00000",
          "blockHash": "0xc15e87b69c154f7c18f8e1d654d0b7b27f4b69149c51db5308ce896bd71bf631",
          "blockNumber": "0x7",
          "blockTimestamp": "0x6a29b0e7",
          "transactionHash": "0xf55391f5f68acb0e3610e34722613046104be0e6a7d3bcff485951cfda55667b",
          "transactionIndex": "0x2",
          "logIndex": "0x3",
          "removed": false
        }
      ],
      "logsBloom": "0x00000000000000000000000000000000000000000000000000000000000000000000000000000000000000000000000040000000000000000000000000200000000000000000000000000000000000000000000000000000000000000000000000000040000000000000000100000000000000000000000000000000000000000000000000000000000000000000000000000000000000000000000200000000120000000000000000000000000000000000000000000000000000000000000000000040000000200000000000000000000000002000001000000000000000000010000000000000000000000000000000000000000000000000000000000000",
      "type": "0x2",
      "transactionHash": "0xf55391f5f68acb0e3610e34722613046104be0e6a7d3bcff485951cfda55667b",
      "transactionIndex": "0x2",
      "blockHash": "0xc15e87b69c154f7c18f8e1d654d0b7b27f4b69149c51db5308ce896bd71bf631",
      "blockNumber": "0x7",
      "gasUsed": "0xb51f",
      "effectiveGasPrice": "0x1c39be91",
      "blobGasPrice": "0x1",
      "from": "0xf39fd6e51aad88f6f4ce6ab8827279cfffb92266",
      "to": "0x5fbdb2315678afecb367f032d93f642f64180aa3",
      "contractAddress": null
    },
    {
      "status": "0x1",
      "cumulativeGasUsed": "0x4fee4",
      "logs": [
        {
          "address": "0x5fc8d32690cc91d4c39d9d3abcbd16989f875707",
          "topics": [
            "0x9a98994924b3f454e430a7e3c884aa145467ff2913f30a4b4c428a25797c7975",
            "0x0000000000000000000000000000000000000000000000000000000000000001",
            "0x000000000000000000000000f39fd6e51aad88f6f4ce6ab8827279cfffb92266"
          ],
          "data": "0x000000000000000000000000000000000000000000000000a688906bd8b00000000000000000000000000000000000000000000000000000a688906bd8b00000",
          "blockHash": "0xc15e87b69c154f7c18f8e1d654d0b7b27f4b69149c51db5308ce896bd71bf631",
          "blockNumber": "0x7",
          "blockTimestamp": "0x6a29b0e7",
          "transactionHash": "0x9573d7f98c0d32c37c2dc6ee44b39a0d84eda56f0096fb83f8d64e63f09d575e",
          "transactionIndex": "0x3",
          "logIndex": "0x4",
          "removed": false
        },
        {
          "address": "0x5fbdb2315678afecb367f032d93f642f64180aa3",
          "topics": [
            "0xddf252ad1be2c89b69c2b068fc378daa952ba7f163c4a11628f55a4df523b3ef",
            "0x000000000000000000000000f39fd6e51aad88f6f4ce6ab8827279cfffb92266",
            "0x0000000000000000000000005fc8d32690cc91d4c39d9d3abcbd16989f875707"
          ],
          "data": "0x000000000000000000000000000000000000000000000000a688906bd8b00000",
          "blockHash": "0xc15e87b69c154f7c18f8e1d654d0b7b27f4b69149c51db5308ce896bd71bf631",
          "blockNumber": "0x7",
          "blockTimestamp": "0x6a29b0e7",
          "transactionHash": "0x9573d7f98c0d32c37c2dc6ee44b39a0d84eda56f0096fb83f8d64e63f09d575e",
          "transactionIndex": "0x3",
          "logIndex": "0x5",
          "removed": false
        },
        {
          "address": "0xdc64a140aa3e981100a9beca4e685f962f0cf6c9",
          "topics": [
            "0xbf05e1cf2347c8f6a6c63f13c66a0b87ee6ebc0fe088327380f5073bd9f14021",
            "0x0000000000000000000000000000000000000000000000000000000000000001"
          ],
          "data": "0x00000000000000000000000000000000000000000000000000000000000000010000000000000000000000000000000000000000000000000000000000000002",
          "blockHash": "0xc15e87b69c154f7c18f8e1d654d0b7b27f4b69149c51db5308ce896bd71bf631",
          "blockNumber": "0x7",
          "blockTimestamp": "0x6a29b0e7",
          "transactionHash": "0x9573d7f98c0d32c37c2dc6ee44b39a0d84eda56f0096fb83f8d64e63f09d575e",
          "transactionIndex": "0x3",
          "logIndex": "0x6",
          "removed": false
        }
      ],
      "logsBloom": "0x00000040000000000000000000000000000000000000000000000100000000000000000000000000000000000000000040000000000000000000000000040000004000000000000000000008000000004000000240040000000000000000000000000040000000000000000100000000000000000000000000000010000000000000000000000000000000000000000000000000000000000000000200000000100000000000000000000000000000000000000000000000000000000000000000000042000000200000000000000200000000002020011000000001000040000000000000000000000000000000000000000001000000000100000000000000",
      "type": "0x2",
      "transactionHash": "0x9573d7f98c0d32c37c2dc6ee44b39a0d84eda56f0096fb83f8d64e63f09d575e",
      "transactionIndex": "0x3",
      "blockHash": "0xc15e87b69c154f7c18f8e1d654d0b7b27f4b69149c51db5308ce896bd71bf631",
      "blockNumber": "0x7",
      "gasUsed": "0x1a7d8",
      "effectiveGasPrice": "0x1c39be91",
      "blobGasPrice": "0x1",
      "from": "0xf39fd6e51aad88f6f4ce6ab8827279cfffb92266",
      "to": "0x5fc8d32690cc91d4c39d9d3abcbd16989f875707",
      "contractAddress": null
    }
  ],
  "libraries": [],
  "pending": [],
  "returns": {},
  "timestamp": 1781117159875,
  "chain": 31337,
  "commit": "d155627"
}