{
  "transactions": [
    {
      "hash": "0x477611a2c9a7bb390d9091135f785209e88b22dd3ffdf4a13db03b1860a29bb2",
      "transactionType": "CALL",
      "contractName": null,
      "contractAddress": "0xe7f1725e7734ce288f8367e1bb143e90bb3f0512",
      "function": "mint(address,uint256)",
      "arguments": [
        "0x70997970C51812dc3A010C7d01b50e0d17dc79C8",
        "10000000000000000000"
      ],
      "transaction": {
        "from": "0xf39fd6e51aad88f6f4ce6ab8827279cfffb92266",
        "to": "0xe7f1725e7734ce288f8367e1bb143e90bb3f0512",
        "gas": "0xb89c",
        "value": "0x0",
        "input": "0x40c10f1900000000000000000000000070997970c51812dc3a010c7d01b50e0d17dc79c80000000000000000000000000000000000000000000000008ac7230489e80000",
        "nonce": "0x10",
        "chainId": "0x7a69"
      },
      "additionalContracts": [],
      "isFixedGasLimit": false
    },
    {
      "hash": "0x5cfaabfcb3ece0c44ec1bd5149df25184e819e2baac38e3e39520f738f5ef42e",
      "transactionType": "CALL",
      "contractName": null,
      "contractAddress": "0xe7f1725e7734ce288f8367e1bb143e90bb3f0512",
      "function": "mint(address,uint256)",
      "arguments": [
        "0x3C44CdDdB6a900fa2b585dd299e03d12FA4293BC",
        "14000000000000000000"
      ],
      "transaction": {
        "from": "0xf39fd6e51aad88f6f4ce6ab8827279cfffb92266",
        "to": "0xe7f1725e7734ce288f8367e1bb143e90bb3f0512",
        "gas": "0xb88b",
        "value": "0x0",
        "input": "0x40c10f190000000000000000000000003c44cdddb6a900fa2b585dd299e03d12fa4293bc000000000000000000000000000000000000000000000000c249fdd327780000",
        "nonce": "0x11",
        "chainId": "0x7a69"
      },
      "additionalContracts": [],
      "isFixedGasLimit": false
    },
    {
      "hash": "0x73eb3d38a57bdb2510aa451854109c13a8218115693121e6e27dae9972fabbe8",
      "transactionType": "CALL",
      "contractName": null,
      "contractAddress": "0xdc64a140aa3e981100a9beca4e685f962f0cf6c9",
      "function": "announceAction(address,uint8,uint256,uint64,uint64,uint64,address,string)",
      "arguments": [
        "0xe7f1725E7734CE288F8367e1Bb143E90bb3F0512",
        "0",
        "500000000000000000",
        "6",
        "1781112505",
        "1781717305",
        "0x5FbDB2315678afecb367f032d93F642f64180aa3",
        "ipfs://corporax/demo/tsla-q2-2026.json"
      ],
      "transaction": {
        "from": "0xf39fd6e51aad88f6f4ce6ab8827279cfffb92266",
        "to": "0xdc64a140aa3e981100a9beca4e685f962f0cf6c9",
        "gas": "0x4e7ca",
        "value": "0x0",
        "input": "0xf43ffdc0000000000000000000000000e7f1725e7734ce288f8367e1bb143e90bb3f0512000000000000000000000000000000000000000000000000000000000000000000000000000000000000000000000000000000000000000006f05b59d3b200000000000000000000000000000000000000000000000000000000000000000006000000000000000000000000000000000000000000000000000000006a299eb9000000000000000000000000000000000000000000000000000000006a32d9390000000000000000000000005fbdb2315678afecb367f032d93f642f64180aa300000000000000000000000000000000000000000000000000000000000001000000000000000000000000000000000000000000000000000000000000000026697066733a2f2f636f72706f7261782f64656d6f2f74736c612d71322d323032362e6a736f6e0000000000000000000000000000000000000000000000000000",
        "nonce": "0x12",
        "chainId": "0x7a69"
      },
      "additionalContracts": [],
      "isFixedGasLimit": false
    },
    {
      "hash": "0x8c15e79e27a153f32a0953296a93fbe6dd085ea07ee774486d99a1e1fb17d35c",
      "transactionType": "CALL",
      "contractName": null,
      "contractAddress": "0xdc64a140aa3e981100a9beca4e685f962f0cf6c9",
      "function": "publishRoot(uint256,bytes32,uint256,uint256)",
      "arguments": [
        "2",
        "0x785bec3a5a088f1ad7c0594cc8412a1e706398e31c5fbc9e1ffd616c289119b3",
        "12000000000000000000",
        "2"
      ],
      "transaction": {
        "from": "0xf39fd6e51aad88f6f4ce6ab8827279cfffb92266",
        "to": "0xdc64a140aa3e981100a9beca4e685f962f0cf6c9",
        "gas": "0x231b7",
        "value": "0x0",
        "input": "0xffa1c4120000000000000000000000000000000000000000000000000000000000000002785bec3a5a088f1ad7c0594cc8412a1e706398e31c5fbc9e1ffd616c289119b3000000000000000000000000000000000000000000000000a688906bd8b000000000000000000000000000000000000000000000000000000000000000000002",
        "nonce": "0x13",
        "chainId": "0x7a69"
      },
      "additionalContracts": [],
      "isFixedGasLimit": false
    },
    {
      "hash": "0xbe4c82c941231af576522742517891b8826d1fc13638832fe2e5c95ba24115da",
      "transactionType": "CALL",
      "contractName": null,
      "contractAddress": "0x5fbdb2315678afecb367f032d93f642f64180aa3",
      "function": "mint(address,uint256)",
      "arguments": [
        "0xf39Fd6e51aad88F6F4ce6aB8827279cffFb92266",
        "12000000000000000000"
      ],
      "transaction": {
        "from": "0xf39fd6e51aad88f6f4ce6ab8827279cfffb92266",
        "to": "0x5fbdb2315678afecb367f032d93f642f64180aa3",
        "gas": "0x114df",
        "value": "0x0",
        "input": "0x40c10f19000000000000000000000000f39fd6e51aad88f6f4ce6ab8827279cfffb92266000000000000000000000000000000000000000000000000a688906bd8b00000",
        "nonce": "0x14",
        "chainId": "0x7a69"
      },
      "additionalContracts": [],
      "isFixedGasLimit": false
    },
    {
      "hash": "0xe591c3e13e6bf0113543c341159f2e7de98dff90d5e26854436a4ee8e62ef3d4",
      "transactionType": "CALL",
      "contractName": null,
      "contractAddress": "0x5fbdb2315678afecb367f032d93f642f64180aa3",
      "function": "approve(address,uint256)",
      "arguments": [
        "0x5FC8d32690cc91D4c39d9d3abcBD16989F875707",
        "12000000000000000000"
      ],
      "transaction": {
        "from": "0xf39fd6e51aad88f6f4ce6ab8827279cfffb92266",
        "to": "0x5fbdb2315678afecb367f032d93f642f64180aa3",
        "gas": "0xfa2b",
        "value": "0x0",
        "input": "0x095ea7b30000000000000000000000005fc8d32690cc91d4c39d9d3abcbd16989f875707000000000000000000000000000000000000000000000000a688906bd8b00000",
        "nonce": "0x15",
        "chainId": "0x7a69"
      },
      "additionalContracts": [],
      "isFixedGasLimit": false
    },
    {
      "hash": "0x6937ddf742c9ac230e4ace529ff6be7458b9687ad591b3e3754ea22d093094f3",
      "transactionType": "CALL",
      "contractName": null,
      "contractAddress": "0x5fc8d32690cc91d4c39d9d3abcbd16989f875707",
      "function": "fund(uint256,uint256)",
      "arguments": [
        "2",
        "12000000000000000000"
      ],
      "transaction": {
        "from": "0xf39fd6e51aad88f6f4ce6ab8827279cfffb92266",
        "to": "0x5fc8d32690cc91d4c39d9d3abcbd16989f875707",
        "gas": "0x1ed2a",
        "value": "0x0",
        "input": "0xa65e2cfd0000000000000000000000000000000000000000000000000000000000000002000000000000000000000000000000000000000000000000a688906bd8b00000",
        "nonce": "0x16",
        "chainId": "0x7a69"
      },
      "additionalContracts": [],
      "isFixedGasLimit": false
    }
  ],
  "receipts": [
    {
      "status": "0x1",
      "cumulativeGasUsed": "0x85a8",
      "logs": [
        {
          "address": "0xe7f1725e7734ce288f8367e1bb143e90bb3f0512",
          "topics": [
            "0xddf252ad1be2c89b69c2b068fc378daa952ba7f163c4a11628f55a4df523b3ef",
            "0x0000000000000000000000000000000000000000000000000000000000000000",
            "0x00000000000000000000000070997970c51812dc3a010c7d01b50e0d17dc79c8"
          ],
          "data": "0x0000000000000000000000000000000000000000000000008ac7230489e80000",
          "blockHash": "0x8bd20fa331fc4788f04ecfbf32d47636819a1d08c28b7c05d20b4e5b8e540fad",
          "blockNumber": "0x8",
          "blockTimestamp": "0x6a299ec9",
          "transactionHash": "0x477611a2c9a7bb390d9091135f785209e88b22dd3ffdf4a13db03b1860a29bb2",
          "transactionIndex": "0x0",
          "logIndex": "0x0",
          "removed": false
        }
      ],
      "logsBloom": "0x00000000000000000002000000000000000000000000000000000000000000000000000000000000000000000000000010000000000000000000000000000000000000000000000000000008000000000000000000000000000000000000000000000800020000000000000000000800000000000000000000000010000000000000000000000000000000000000000000000000000000000000000000000000000000000000000000000000000000000000000000000000000000000000000000000002000000000000000000001000000000000000000000000000000020000000000000000000000000000000000001000000000000800000000000000000",
      "type": "0x2",
      "transactionHash": "0x477611a2c9a7bb390d9091135f785209e88b22dd3ffdf4a13db03b1860a29bb2",
      "transactionIndex": "0x0",
      "blockHash": "0x8bd20fa331fc4788f04ecfbf32d47636819a1d08c28b7c05d20b4e5b8e540fad",
      "blockNumber": "0x8",
      "gasUsed": "0x85a8",
      "effectiveGasPrice": "0x18c61288",
      "blobGasPrice": "0x1",
      "from": "0xf39fd6e51aad88f6f4ce6ab8827279cfffb92266",
      "to": "0xe7f1725e7734ce288f8367e1bb143e90bb3f0512",
      "contractAddress": null
    },
    {
      "status": "0x1",
      "cumulativeGasUsed": "0x859c",
      "logs": [
        {
          "address": "0xe7f1725e7734ce288f8367e1bb143e90bb3f0512",
          "topics": [
            "0xddf252ad1be2c89b69c2b068fc378daa952ba7f163c4a11628f55a4df523b3ef",
            "0x0000000000000000000000000000000000000000000000000000000000000000",
            "0x0000000000000000000000003c44cdddb6a900fa2b585dd299e03d12fa4293bc"
          ],
          "data": "0x000000000000000000000000000000000000000000000000c249fdd327780000",
          "blockHash": "0x28738b3b4cc196ea9641766868983eb9e34340a9d22f0595b03f8d87a8cd0c6a",
          "blockNumber": "0x9",
          "blockTimestamp": "0x6a299ec9",
          "transactionHash": "0x5cfaabfcb3ece0c44ec1bd5149df25184e819e2baac38e3e39520f738f5ef42e",
          "transactionIndex": "0x0",
          "logIndex": "0x0",
          "removed": false
        }
      ],
      "logsBloom": "0x00000000000000000000000000000000000000000000000000000000000000000000000000000000000000000000000010000000000000000000000000100000000000000000000000000008000000000000000000000000000000000000000000000000020000000000000000000800000800000000000000000010000000000000000000000000000000000000000000000000000000000000000000000000000000000000200000000000000000000000000000000000000000000000000000000002000000000000000000001000000000000000000000000000000020000000000000000000000000000000000000000000000000800000000000000000",
      "type": "0x2",
      "transactionHash": "0x5cfaabfcb3ece0c44ec1bd5149df25184e819e2baac38e3e39520f738f5ef42e",
      "transactionIndex": "0x0",
      "blockHash": "0x28738b3b4cc196ea9641766868983eb9e34340a9d22f0595b03f8d87a8cd0c6a",
      "blockNumber": "0x9",
      "gasUsed": "0x859c",
      "effectiveGasPrice": "0x15af1f27",
      "blobGasPrice": "0x1",
      "from": "0xf39fd6e51aad88f6f4ce6ab8827279cfffb92266",
      "to": "0xe7f1725e7734ce288f8367e1bb143e90bb3f0512",
      "contractAddress": null
    },
    {
      "status": "0x1",
      "cumulativeGasUsed": "0x38d2c",
      "logs": [
        {
          "address": "0xdc64a140aa3e981100a9beca4e685f962f0cf6c9",
          "topics": [
            "0xef22903dbbfe0deab39fce011a30d55794838d707c548cb111d63328d32b09e6",
            "0x0000000000000000000000000000000000000000000000000000000000000002",
            "0x000000000000000000000000e7f1725e7734ce288f8367e1bb143e90bb3f0512"
          ],
          "data": "0x000000000000000000000000000000000000000000000000000000000000000000000000000000000000000000000000000000000000000006f05b59d3b200000000000000000000000000000000000000000000000000000000000000000006000000000000000000000000000000000000000000000000000000006a299eb9000000000000000000000000000000000000000000000000000000006a32d9390000000000000000000000005fbdb2315678afecb367f032d93f642f64180aa300000000000000000000000000000000000000000000000000000000000000e00000000000000000000000000000000000000000000000000000000000000026697066733a2f2f636f72706f7261782f64656d6f2f74736c612d71322d323032362e6a736f6e0000000000000000000000000000000000000000000000000000",
          "blockHash": "0x66079675c99cb97dc6543c5e75cb24a162fbb3ea4791867e6f748727e5985c28",
          "blockNumber": "0xa",
          "blockTimestamp": "0x6a299ec9",
          "transactionHash": "0x6937ddf742c9ac230e4ace529ff6be7458b9687ad591b3e3754ea22d093094f3",
          "transactionIndex": "0x0",
          "logIndex": "0x0",
          "removed": false
        }
      ],
      "logsBloom": "0x04000000008000000400000000000000000000000000000000000000000400000000000000000000000000000000000000000000000000000000000000000000000000000000000000000000000000000000000000000000000000000000000000000000000000000000000000000000000000000000000000000004000000000000000000000000000000000000000000000000000000000000000000000000000000000000000000000102000040000000000000000000000000000000000000000000000000000000000000000000000000000020000000000000000000000000000000000000000000000000000000000001008000000100000000000000",
      "type": "0x2",
      "transactionHash": "0x6937ddf742c9ac230e4ace529ff6be7458b9687ad591b3e3754ea22d093094f3",
      "transactionIndex": "0x0",
      "blockHash": "0x66079675c99cb97dc6543c5e75cb24a162fbb3ea4791867e6f748727e5985c28",
      "blockNumber": "0xa",
      "gasUsed": "0x38d2c",
      "effectiveGasPrice": "0x12fad051",
      "blobGasPrice": "0x1",
      "from": "0xf39fd6e51aad88f6f4ce6ab8827279cfffb92266",
      "to": "0xdc64a140aa3e981100a9beca4e685f962f0cf6c9",
      "contractAddress": null
    },
    {
      "status": "0x1",
      "cumulativeGasUsed": "0x523d9",
      "logs": [
        {
          "address": "0xdc64a140aa3e981100a9beca4e685f962f0cf6c9",
          "topics": [
            "0xbf05e1cf2347c8f6a6c63f13c66a0b87ee6ebc0fe088327380f5073bd9f14021",
            "0x0000000000000000000000000000000000000000000000000000000000000002"
          ],
          "data": "0x00000000000000000000000000000000000000000000000000000000000000000000000000000000000000000000000000000000000000000000000000000001",
          "blockHash": "0x66079675c99cb97dc6543c5e75cb24a162fbb3ea4791867e6f748727e5985c28",
          "blockNumber": "0xa",
          "blockTimestamp": "0x6a299ec9",
          "transactionHash": "0xe591c3e13e6bf0113543c341159f2e7de98dff90d5e26854436a4ee8e62ef3d4",
          "transactionIndex": "0x1",
          "logIndex": "0x1",
          "removed": false
        },
        {
          "address": "0xdc64a140aa3e981100a9beca4e685f962f0cf6c9",
          "topics": [
            "0xcd89282af27837818f27b051d259c491396c1d55b4a398a184faf6c23296dc1a",
            "0x0000000000000000000000000000000000000000000000000000000000000002"
          ],
          "data": "0x785bec3a5a088f1ad7c0594cc8412a1e706398e31c5fbc9e1ffd616c289119b3000000000000000000000000000000000000000000000000a688906bd8b000000000000000000000000000000000000000000000000000000000000000000002",
          "blockHash": "0x66079675c99cb97dc6543c5e75cb24a162fbb3ea4791867e6f748727e5985c28",
          "blockNumber": "0xa",
          "blockTimestamp": "0x6a299ec9",
          "transactionHash": "0xe591c3e13e6bf0113543c341159f2e7de98dff90d5e26854436a4ee8e62ef3d4",
          "transactionIndex": "0x1",
          "logIndex": "0x2",
          "removed": false
        }
      ],
      "logsBloom": "0x04000040000000000000000000000000000000000000000000000000000100000000000000000000000000000000010000000000000000000000000000000000000000000000000000000000000000004000000000000000000000000000000000000000000000000000000000000000000000000000000000000000000000000000000000000000000000000000000000000000040000000000000000000000000000000000000000000100000000000000000000000000000000000000000000000000000000000000000000000200000000000020000000000000000000000000000000000000000000000000000000000001008000000100000000000000",
      "type": "0x2",
      "transactionHash": "0xe591c3e13e6bf0113543c341159f2e7de98dff90d5e26854436a4ee8e62ef3d4",
      "transactionIndex": "0x1",
      "blockHash": "0x66079675c99cb97dc6543c5e75cb24a162fbb3ea4791867e6f748727e5985c28",
      "blockNumber": "0xa",
      "gasUsed": "0x196ad",
      "effectiveGasPrice": "0x12fad051",
      "blobGasPrice": "0x1",
      "from": "0xf39fd6e51aad88f6f4ce6ab8827279cfffb92266",
      "to": "0xdc64a140aa3e981100a9beca4e685f962f0cf6c9",
      "contractAddress": null
    },
    {
      "status": "0x1",
      "cumulativeGasUsed": "0x5ec4d",
      "logs": [
        {
          "address": "0x5fbdb2315678afecb367f032d93f642f64180aa3",
          "topics": [
            "0xddf252ad1be2c89b69c2b068fc378daa952ba7f163c4a11628f55a4df523b3ef",
            "0x0000000000000000000000000000000000000000000000000000000000000000",
            "0x000000000000000000000000f39fd6e51aad88f6f4ce6ab8827279cfffb92266"
          ],
          "data": "0x000000000000000000000000000000000000000000000000a688906bd8b00000",
          "blockHash": "0x66079675c99cb97dc6543c5e75cb24a162fbb3ea4791867e6f748727e5985c28",
          "blockNumber": "0xa",
          "blockTimestamp": "0x6a299ec9",
          "transactionHash": "0x8c15e79e27a153f32a0953296a93fbe6dd085ea07ee774486d99a1e1fb17d35c",
          "transactionIndex": "0x2",
          "logIndex": "0x3",
          "removed": false
        }
      ],
      "logsBloom": "0x00000000000000000000000000000000000000000000000000000000000000000000000000000000000000000000000000000000000000000000000000000000000000000000000000000008000000000000000000000000000000000000000000000040020000000000000100000800000000000000000000000010000000000000000000000000000000000000000000000000000000000000000200000000000000000000000000000000000000000000000000000000000000000000000000000042000000200000000000000000000000002000000000000000000020000000000000000000000000000000000000000000000000000000000000000000",
      "type": "0x2",
      "transactionHash": "0x8c15e79e27a153f32a0953296a93fbe6dd085ea07ee774486d99a1e1fb17d35c",
      "transactionIndex": "0x2",
      "blockHash": "0x66079675c99cb97dc6543c5e75cb24a162fbb3ea4791867e6f748727e5985c28",
      "blockNumber": "0xa",
      "gasUsed": "0xc874",
      "effectiveGasPrice": "0x12fad051",
      "blobGasPrice": "0x1",
      "from": "0xf39fd6e51aad88f6f4ce6ab8827279cfffb92266",
      "to": "0x5fbdb2315678afecb367f032d93f642f64180aa3",
      "contractAddress": null
    },
    {
      "status": "0x1",
      "cumulativeGasUsed": "0x6a16c",
      "logs": [
        {
          "address": "0x5fbdb2315678afecb367f032d93f642f64180aa3",
          "topics": [
            "0x8c5be1e5ebec7d5bd14f71427d1e84f3dd0314c0f7b2291e5b200ac8c7c3b925",
            "0x000000000000000000000000f39fd6e51aad88f6f4ce6ab8827279cfffb92266",
            "0x0000000000000000000000005fc8d32690cc91d4c39d9d3abcbd16989f875707"
          ],
          "data": "0x000000000000000000000000000000000000000000000000a688906bd8b00000",
          "blockHash": "0x66079675c99cb97dc6543c5e75cb24a162fbb3ea4791867e6f748727e5985c28",
          "blockNumber": "0xa",
          "blockTimestamp": "0x6a299ec9",
          "transactionHash": "0x73eb3d38a57bdb2510aa451854109c13a8218115693121e6e27dae9972fabbe8",
          "transactionIndex": "0x3",
          "logIndex": "0x4",
          "removed": false
        }
      ],
      "logsBloom": "0x00000000000000000000000000000000000000000000000000000000000000000000000000000000000000000000000040000000000000000000000000200000000000000000000000000000000000000000000000000000000000000000000000000040000000000000000100000000000000000000000000000000000000000000000000000000000000000000000000000000000000000000000200000000120000000000000000000000000000000000000000000000000000000000000000000040000000200000000000000000000000002000001000000000000000000010000000000000000000000000000000000000000000000000000000000000",
      "type": "0x2",
      "transactionHash": "0x73eb3d38a57bdb2510aa451854109c13a8218115693121e6e27dae9972fabbe8",
      "transactionIndex": "0x3",
      "blockHash": "0x66079675c99cb97dc6543c5e75cb24a162fbb3ea4791867e6f748727e5985c28",
      "blockNumber": "0xa",
      "gasUsed": "0xb51f",
      "effectiveGasPrice": "0x12fad051",
      "blobGasPrice": "0x1",
      "from": "0xf39fd6e51aad88f6f4ce6ab8827279cfffb92266",
      "to": "0x5fbdb2315678afecb367f032d93f642f64180aa3",
      "contractAddress": null
    },
    {
      "status": "0x1",
      "cumulativeGasUsed": "0x80678",
      "logs": [
        {
          "address": "0x5fc8d32690cc91d4c39d9d3abcbd16989f875707",
          "topics": [
            "0x9a98994924b3f454e430a7e3c884aa145467ff2913f30a4b4c428a25797c7975",
            "0x0000000000000000000000000000000000000000000000000000000000000002",
            "0x000000000000000000000000f39fd6e51aad88f6f4ce6ab8827279cfffb92266"
          ],
          "data": "0x000000000000000000000000000000000000000000000000a688906bd8b00000000000000000000000000000000000000000000000000000a688906bd8b00000",
          "blockHash": "0x66079675c99cb97dc6543c5e75cb24a162fbb3ea4791867e6f748727e5985c28",
          "blockNumber": "0xa",
          "blockTimestamp": "0x6a299ec9",
          "transactionHash": "0xbe4c82c941231af576522742517891b8826d1fc13638832fe2e5c95ba24115da",
          "transactionIndex": "0x4",
          "logIndex": "0x5",
          "removed": false
        },
        {
          "address": "0x5fbdb2315678afecb367f032d93f642f64180aa3",
          "topics": [
            "0xddf252ad1be2c89b69c2b068fc378daa952ba7f163c4a11628f55a4df523b3ef",
            "0x000000000000000000000000f39fd6e51aad88f6f4ce6ab8827279cfffb92266",
            "0x0000000000000000000000005fc8d32690cc91d4c39d9d3abcbd16989f875707"
          ],
          "data": "0x000000000000000000000000000000000000000000000000a688906bd8b00000",
          "blockHash": "0x66079675c99cb97dc6543c5e75cb24a162fbb3ea4791867e6f748727e5985c28",
          "blockNumber": "0xa",
          "blockTimestamp": "0x6a299ec9",
          "transactionHash": "0xbe4c82c941231af576522742517891b8826d1fc13638832fe2e5c95ba24115da",
          "transactionIndex": "0x4",
          "logIndex": "0x6",
          "removed": false
        },
        {
          "address": "0xdc64a140aa3e981100a9beca4e685f962f0cf6c9",
          "topics": [
            "0xbf05e1cf2347c8f6a6c63f13c66a0b87ee6ebc0fe088327380f5073bd9f14021",
            "0x0000000000000000000000000000000000000000000000000000000000000002"
          ],
          "data": "0x00000000000000000000000000000000000000000000000000000000000000010000000000000000000000000000000000000000000000000000000000000002",
          "blockHash": "0x66079675c99cb97dc6543c5e75cb24a162fbb3ea4791867e6f748727e5985c28",
          "blockNumber": "0xa",
          "blockTimestamp": "0x6a299ec9",
          "transactionHash": "0xbe4c82c941231af576522742517891b8826d1fc13638832fe2e5c95ba24115da",
          "transactionIndex": "0x4",
          "logIndex": "0x7",
          "removed": false
        }
      ],
      "logsBloom": "0x04000040000000000000000000000000000000000000000000000100000000000000000000000000000000000000000040000000000000000000000000000000004000000000000000000008000000004000000240000000000000000000000000000040000000000000000100000000000000000000000000000010000000000000000000000000000000000000000000000000000000000000000200000000100000000000000000000100000000000000000000000000000000000000000000000042000000200000000000000200000000002020011000000001000000000000000000000000000000000000000000000001008000000100000000000000",
      "type": "0x2",
      "transactionHash": "0xbe4c82c941231af576522742517891b8826d1fc13638832fe2e5c95ba24115da",
      "transactionIndex": "0x4",
      "blockHash": "0x66079675c99cb97dc6543c5e75cb24a162fbb3ea4791867e6f748727e5985c28",
      "blockNumber": "0xa",
      "gasUsed": "0x1650c",
      "effectiveGasPrice": "0x12fad051",
      "blobGasPrice": "0x1",
      "from": "0xf39fd6e51aad88f6f4ce6ab8827279cfffb92266",
      "to": "0x5fc8d32690cc91d4c39d9d3abcbd16989f875707",
      "contractAddress": null
    }
  ],
  "libraries": [],
  "pending": [],
  "returns": {},
  "timestamp": 1781112521633,
  "chain": 31337,
  "commit": null
}