{
  "transactions": [
    {
      "hash": "0x5542b0d9d60075ff9b966fa54ea566212f247757e80f68ded7d9b4a7bee82b34",
      "transactionType": "CALL",
      "contractName": null,
      "contractAddress": "0xe7f1725e7734ce288f8367e1bb143e90bb3f0512",
      "function": "mint(address,uint256)",
      "arguments": [
        "0x70997970C51812dc3A010C7d01b50e0d17dc79C8",
        "10000000000000000000"
      ],
      "transaction": {
        "from": "0xf39fd6e51aad88f6f4ce6ab8827279cfffb92266",
        "to": "0xe7f1725e7734ce288f8367e1bb143e90bb3f0512",
        "gas": "0x17123",
        "value": "0x0",
        "input": "0x40c10f1900000000000000000000000070997970c51812dc3a010c7d01b50e0d17dc79c80000000000000000000000000000000000000000000000008ac7230489e80000",
        "nonce": "0x9",
        "chainId": "0x7a69"
      },
      "additionalContracts": [],
      "isFixedGasLimit": false
    },
    {
      "hash": "0xf00438b5dd4ca6e17d4ada14ad93d0726f8637c28a402017cf3dbd48cc2d77a8",
      "transactionType": "CALL",
      "contractName": null,
      "contractAddress": "0xe7f1725e7734ce288f8367e1bb143e90bb3f0512",
      "function": "mint(address,uint256)",
      "arguments": [
        "0x3C44CdDdB6a900fa2b585dd299e03d12FA4293BC",
        "14000000000000000000"
      ],
      "transaction": {
        "from": "0xf39fd6e51aad88f6f4ce6ab8827279cfffb92266",
        "to": "0xe7f1725e7734ce288f8367e1bb143e90bb3f0512",
        "gas": "0x114cf",
        "value": "0x0",
        "input": "0x40c10f190000000000000000000000003c44cdddb6a900fa2b585dd299e03d12fa4293bc000000000000000000000000000000000000000000000000c249fdd327780000",
        "nonce": "0xa",
        "chainId": "0x7a69"
      },
      "additionalContracts": [],
      "isFixedGasLimit": false
    },
    {
      "hash": "0x7c54f28123e60b144f844ffcd40de5fbe6a014cc969db4a57975c03889e55cb3",
      "transactionType": "CALL",
      "contractName": null,
      "contractAddress": "0xdc64a140aa3e981100a9beca4e685f962f0cf6c9",
      "function": "announceAction(address,uint8,uint256,uint64,uint64,uint64,address,string)",
      "arguments": [
        "0xe7f1725E7734CE288F8367e1Bb143E90bb3F0512",
        "0",
        "500000000000000000",
        "2",
        "1781113053",
        "1781717853",
        "0x5FbDB2315678afecb367f032d93F642f64180aa3",
        "ipfs://corporax/demo/tsla-q2-2026.json"
      ],
      "transaction": {
        "from": "0xf39fd6e51aad88f6f4ce6ab8827279cfffb92266",
        "to": "0xdc64a140aa3e981100a9beca4e685f962f0cf6c9",
        "gas": "0x5440d",
        "value": "0x0",
        "input": "0xf43ffdc0000000000000000000000000e7f1725e7734ce288f8367e1bb143e90bb3f0512000000000000000000000000000000000000000000000000000000000000000000000000000000000000000000000000000000000000000006f05b59d3b200000000000000000000000000000000000000000000000000000000000000000002000000000000000000000000000000000000000000000000000000006a29a0dd000000000000000000000000000000000000000000000000000000006a32db5d0000000000000000000000005fbdb2315678afecb367f032d93f642f64180aa300000000000000000000000000000000000000000000000000000000000001000000000000000000000000000000000000000000000000000000000000000026697066733a2f2f636f72706f7261782f64656d6f2f74736c612d71322d323032362e6a736f6e0000000000000000000000000000000000000000000000000000",
        "nonce": "0xb",
        "chainId": "0x7a69"
      },
      "additionalContracts": [],
      "isFixedGasLimit": false
    },
    {
      "hash": "0x134cec0ae66f5e4016a5235cab5c442bf2507f1f83f1e08c96d8bc8117b3ef3b",
      "transactionType": "CALL",
      "contractName": null,
      "contractAddress": "0xdc64a140aa3e981100a9beca4e685f962f0cf6c9",
      "function": "publishRoot(uint256,bytes32,uint256,uint256)",
      "arguments": [
        "1",
        "0x9daa2db93985d682fb9490802adb983d82f4922fc23cb599506238e84fd05a21",
        "12000000000000000000",
        "2"
      ],
      "transaction": {
        "from": "0xf39fd6e51aad88f6f4ce6ab8827279cfffb92266",
        "to": "0xdc64a140aa3e981100a9beca4e685f962f0cf6c9",
        "gas": "0x231b7",
        "value": "0x0",
        "input": "0xffa1c41200000000000000000000000000000000000000000000000000000000000000019daa2db93985d682fb9490802adb983d82f4922fc23cb599506238e84fd05a21000000000000000000000000000000000000000000000000a688906bd8b000000000000000000000000000000000000000000000000000000000000000000002",
        "nonce": "0xc",
        "chainId": "0x7a69"
      },
      "additionalContracts": [],
      "isFixedGasLimit": false
    },
    {
      "hash": "0x38af22b042d0e4966ae1da960a79011f09c8d8e0e5001db759638204817521de",
      "transactionType": "CALL",
      "contractName": null,
      "contractAddress": "0x5fbdb2315678afecb367f032d93f642f64180aa3",
      "function": "mint(address,uint256)",
      "arguments": [
        "0xf39Fd6e51aad88F6F4ce6aB8827279cffFb92266",
        "12000000000000000000"
      ],
      "transaction": {
        "from": "0xf39fd6e51aad88f6f4ce6ab8827279cfffb92266",
        "to": "0x5fbdb2315678afecb367f032d93f642f64180aa3",
        "gas": "0x17123",
        "value": "0x0",
        "input": "0x40c10f19000000000000000000000000f39fd6e51aad88f6f4ce6ab8827279cfffb92266000000000000000000000000000000000000000000000000a688906bd8b00000",
        "nonce": "0xd",
        "chainId": "0x7a69"
      },
      "additionalContracts": [],
      "isFixedGasLimit": false
    },
    {
      "hash": "0xedc51f2cad4f736e6ab004dfd9a71473cc753d7cd489205e72e841a9dffd68ae",
      "transactionType": "CALL",
      "contractName": null,
      "contractAddress": "0x5fbdb2315678afecb367f032d93f642f64180aa3",
      "function": "approve(address,uint256)",
      "arguments": [
        "0x5FC8d32690cc91D4c39d9d3abcBD16989F875707",
        "12000000000000000000"
      ],
      "transaction": {
        "from": "0xf39fd6e51aad88f6f4ce6ab8827279cfffb92266",
        "to": "0x5fbdb2315678afecb367f032d93f642f64180aa3",
        "gas": "0xfa2b",
        "value": "0x0",
        "input": "0x095ea7b30000000000000000000000005fc8d32690cc91d4c39d9d3abcbd16989f875707000000000000000000000000000000000000000000000000a688906bd8b00000",
        "nonce": "0xe",
        "chainId": "0x7a69"
      },
      "additionalContracts": [],
      "isFixedGasLimit": false
    },
    {
      "hash": "0x06e2890212576a9d9253e82fc533c0b169cc6ae16a5f86e5e5532e85a8f7a4a0",
      "transactionType": "CALL",
      "contractName": null,
      "contractAddress": "0x5fc8d32690cc91d4c39d9d3abcbd16989f875707",
      "function": "fund(uint256,uint256)",
      "arguments": [
        "1",
        "12000000000000000000"
      ],
      "transaction": {
        "from": "0xf39fd6e51aad88f6f4ce6ab8827279cfffb92266",
        "to": "0x5fc8d32690cc91d4c39d9d3abcbd16989f875707",
        "gas": "0x2496e",
        "value": "0x0",
        "input": "0xa65e2cfd0000000000000000000000000000000000000000000000000000000000000001000000000000000000000000000000000000000000000000a688906bd8b00000",
        "nonce": "0xf",
        "chainId": "0x7a69"
      },
      "additionalContracts": [],
      "isFixedGasLimit": false
    }
  ],
  "receipts": [
    {
      "status": "0x1",
      "cumulativeGasUsed": "0x10b40",
      "logs": [
        {
          "address": "0xe7f1725e7734ce288f8367e1bb143e90bb3f0512",
          "topics": [
            "0xddf252ad1be2c89b69c2b068fc378daa952ba7f163c4a11628f55a4df523b3ef",
            "0x0000000000000000000000000000000000000000000000000000000000000000",
            "0x00000000000000000000000070997970c51812dc3a010c7d01b50e0d17dc79c8"
          ],
          "data": "0x0000000000000000000000000000000000000000000000008ac7230489e80000",
          "blockHash": "0x37e01829ca46ee201fe415b5d665fe6bf068612e67d47065b1b7a763bb888546",
          "blockNumber": "0x4",
          "blockTimestamp": "0x6a29a0e8",
          "transactionHash": "0x5542b0d9d60075ff9b966fa54ea566212f247757e80f68ded7d9b4a7bee82b34",
          "transactionIndex": "0x0",
          "logIndex": "0x0",
          "removed": false
        }
      ],
      "logsBloom": "0x00000000000000000002000000000000000000000000000000000000000000000000000000000000000000000000000010000000000000000000000000000000000000000000000000000008000000000000000000000000000000000000000000000800020000000000000000000800000000000000000000000010000000000000000000000000000000000000000000000000000000000000000000000000000000000000000000000000000000000000000000000000000000000000000000000002000000000000000000001000000000000000000000000000000020000000000000000000000000000000000001000000000000800000000000000000",
      "type": "0x2",
      "transactionHash": "0x5542b0d9d60075ff9b966fa54ea566212f247757e80f68ded7d9b4a7bee82b34",
      "transactionIndex": "0x0",
      "blockHash": "0x37e01829ca46ee201fe415b5d665fe6bf068612e67d47065b1b7a763bb888546",
      "blockNumber": "0x4",
      "gasUsed": "0x10b40",
      "effectiveGasPrice": "0x29fcf112",
      "blobGasPrice": "0x1",
      "from": "0xf39fd6e51aad88f6f4ce6ab8827279cfffb92266",
      "to": "0xe7f1725e7734ce288f8367e1bb143e90bb3f0512",
      "contractAddress": null
    },
    {
      "status": "0x1",
      "cumulativeGasUsed": "0xc868",
      "logs": [
        {
          "address": "0xe7f1725e7734ce288f8367e1bb143e90bb3f0512",
          "topics": [
            "0xddf252ad1be2c89b69c2b068fc378daa952ba7f163c4a11628f55a4df523b3ef",
            "0x0000000000000000000000000000000000000000000000000000000000000000",
            "0x0000000000000000000000003c44cdddb6a900fa2b585dd299e03d12fa4293bc"
          ],
          "data": "0x000000000000000000000000000000000000000000000000c249fdd327780000",
          "blockHash": "0x268bcdf50f1afbdfd8f9d6af3eca38dcc92a725f031dfe8a27c12cab245c7c45",
          "blockNumber": "0x5",
          "blockTimestamp": "0x6a29a0e8",
          "transactionHash": "0xf00438b5dd4ca6e17d4ada14ad93d0726f8637c28a402017cf3dbd48cc2d77a8",
          "transactionIndex": "0x0",
          "logIndex": "0x0",
          "removed": false
        }
      ],
      "logsBloom": "0x00000000000000000000000000000000000000000000000000000000000000000000000000000000000000000000000010000000000000000000000000100000000000000000000000000008000000000000000000000000000000000000000000000000020000000000000000000800000800000000000000000010000000000000000000000000000000000000000000000000000000000000000000000000000000000000200000000000000000000000000000000000000000000000000000000002000000000000000000001000000000000000000000000000000020000000000000000000000000000000000000000000000000800000000000000000",
      "type": "0x2",
      "transactionHash": "0xf00438b5dd4ca6e17d4ada14ad93d0726f8637c28a402017cf3dbd48cc2d77a8",
      "transactionIndex": "0x0",
      "blockHash": "0x268bcdf50f1afbdfd8f9d6af3eca38dcc92a725f031dfe8a27c12cab245c7c45",
      "blockNumber": "0x5",
      "gasUsed": "0xc868",
      "effectiveGasPrice": "0x24c373cb",
      "blobGasPrice": "0x1",
      "from": "0xf39fd6e51aad88f6f4ce6ab8827279cfffb92266",
      "to": "0xe7f1725e7734ce288f8367e1bb143e90bb3f0512",
      "contractAddress": null
    },
    {
      "status": "0x1",
      "cumulativeGasUsed": "0x49860",
      "logs": [
        {
          "address": "0xdc64a140aa3e981100a9beca4e685f962f0cf6c9",
          "topics": [
            "0xef22903dbbfe0deab39fce011a30d55794838d707c548cb111d63328d32b09e6",
            "0x0000000000000000000000000000000000000000000000000000000000000001",
            "0x000000000000000000000000e7f1725e7734ce288f8367e1bb143e90bb3f0512"
          ],
          "data": "0x000000000000000000000000000000000000000000000000000000000000000000000000000000000000000000000000000000000000000006f05b59d3b200000000000000000000000000000000000000000000000000000000000000000002000000000000000000000000000000000000000000000000000000006a29a0dd000000000000000000000000000000000000000000000000000000006a32db5d0000000000000000000000005fbdb2315678afecb367f032d93f642f64180aa300000000000000000000000000000000000000000000000000000000000000e00000000000000000000000000000000000000000000000000000000000000026697066733a2f2f636f72706f7261782f64656d6f2f74736c612d71322d323032362e6a736f6e0000000000000000000000000000000000000000000000000000",
          "blockHash": "0x268bcdf50f1afbdfd8f9d6af3eca38dcc92a725f031dfe8a27c12cab245c7c45",
          "blockNumber": "0x5",
          "blockTimestamp": "0x6a29a0e8",
          "transactionHash": "0x134cec0ae66f5e4016a5235cab5c442bf2507f1f83f1e08c96d8bc8117b3ef3b",
          "transactionIndex": "0x1",
          "logIndex": "0x1",
          "removed": false
        }
      ],
      "logsBloom": "0x00000000008000000400000000000000000000000000000000000000000400000000000000000000000000000000000000000000000000000000000000040000000000000000000000000000000000000000000000040000000000000000000000000000000000000000000000000000000000000000000000000004000000000000000000000000000000000000000000000000000000000000000000000000000000000000000000000002000040000000000000000000000000000000000000000000000000000000000000000000000000000020000000000000000040000000000000000000000000000000000000000001000000000100000000000000",
      "type": "0x2",
      "transactionHash": "0x134cec0ae66f5e4016a5235cab5c442bf2507f1f83f1e08c96d8bc8117b3ef3b",
      "transactionIndex": "0x1",
      "blockHash": "0x268bcdf50f1afbdfd8f9d6af3eca38dcc92a725f031dfe8a27c12cab245c7c45",
      "blockNumber": "0x5",
      "gasUsed": "0x3cff8",
      "effectiveGasPrice": "0x24c373cb",
      "blobGasPrice": "0x1",
      "from": "0xf39fd6e51aad88f6f4ce6ab8827279cfffb92266",
      "to": "0xdc64a140aa3e981100a9beca4e685f962f0cf6c9",
      "contractAddress": null
    },
    {
      "status": "0x1",
      "cumulativeGasUsed": "0x62f0d",
      "logs": [
        {
          "address": "0xdc64a140aa3e981100a9beca4e685f962f0cf6c9",
          "topics": [
            "0xbf05e1cf2347c8f6a6c63f13c66a0b87ee6ebc0fe088327380f5073bd9f14021",
            "0x0000000000000000000000000000000000000000000000000000000000000001"
          ],
          "data": "0x00000000000000000000000000000000000000000000000000000000000000000000000000000000000000000000000000000000000000000000000000000001",
          "blockHash": "0x268bcdf50f1afbdfd8f9d6af3eca38dcc92a725f031dfe8a27c12cab245c7c45",
          "blockNumber": "0x5",
          "blockTimestamp": "0x6a29a0e8",
          "transactionHash": "0x38af22b042d0e4966ae1da960a79011f09c8d8e0e5001db759638204817521de",
          "transactionIndex": "0x2",
          "logIndex": "0x2",
          "removed": false
        },
        {
          "address": "0xdc64a140aa3e981100a9beca4e685f962f0cf6c9",
          "topics": [
            "0xcd89282af27837818f27b051d259c491396c1d55b4a398a184faf6c23296dc1a",
            "0x0000000000000000000000000000000000000000000000000000000000000001"
          ],
          "data": "0x9daa2db93985d682fb9490802adb983d82f4922fc23cb599506238e84fd05a21000000000000000000000000000000000000000000000000a688906bd8b000000000000000000000000000000000000000000000000000000000000000000002",
          "blockHash": "0x268bcdf50f1afbdfd8f9d6af3eca38dcc92a725f031dfe8a27c12cab245c7c45",
          "blockNumber": "0x5",
          "blockTimestamp": "0x6a29a0e8",
          "transactionHash": "0x38af22b042d0e4966ae1da960a79011f09c8d8e0e5001db759638204817521de",
          "transactionIndex": "0x2",
          "logIndex": "0x3",
          "removed": false
        }
      ],
      "logsBloom": "0x00000040000000000000000000000000000000000000000000000000000100000000000000000000000000000000010000000000000000000000000000040000000000000000000000000000000000004000000000040000000000000000000000000000000000000000000000000000000000000000000000000000000000000000000000000000000000000000000000000000040000000000000000000000000000000000000000000000000000000000000000000000000000000000000000000000000000000000000000000200000000000020000000000000000040000000000000000000000000000000000000000001000000000100000000000000",
      "type": "0x2",
      "transactionHash": "0x38af22b042d0e4966ae1da960a79011f09c8d8e0e5001db759638204817521de",
      "transactionIndex": "0x2",
      "blockHash": "0x268bcdf50f1afbdfd8f9d6af3eca38dcc92a725f031dfe8a27c12cab245c7c45",
      "blockNumber": "0x5",
      "gasUsed": "0x196ad",
      "effectiveGasPrice": "0x24c373cb",
      "blobGasPrice": "0x1",
      "from": "0xf39fd6e51aad88f6f4ce6ab8827279cfffb92266",
      "to": "0xdc64a140aa3e981100a9beca4e685f962f0cf6c9",
      "contractAddress": null
    },
    {
      "status": "0x1",
      "cumulativeGasUsed": "0x10b40",
      "logs": [
        {
          "address": "0x5fbdb2315678afecb367f032d93f642f64180aa3",
          "topics": [
            "0xddf252ad1be2c89b69c2b068fc378daa952ba7f163c4a11628f55a4df523b3ef",
            "0x0000000000000000000000000000000000000000000000000000000000000000",
            "0x000000000000000000000000f39fd6e51aad88f6f4ce6ab8827279cfffb92266"
          ],
          "data": "0x000000000000000000000000000000000000000000000000a688906bd8b00000",
          "blockHash": "0x9835fb8d13ff0fe6fe0020fe4da7464e3ef6a14daa03e39ed8fa8d5aed02d18b",
          "blockNumber": "0x6",
          "blockTimestamp": "0x6a29a0e8",
          "transactionHash": "0xedc51f2cad4f736e6ab004dfd9a71473cc753d7cd489205e72e841a9dffd68ae",
          "transactionIndex": "0x0",
          "logIndex": "0x0",
          "removed": false
        }
      ],
      "logsBloom": "0x00000000000000000000000000000000000000000000000000000000000000000000000000000000000000000000000000000000000000000000000000000000000000000000000000000008000000000000000000000000000000000000000000000040020000000000000100000800000000000000000000000010000000000000000000000000000000000000000000000000000000000000000200000000000000000000000000000000000000000000000000000000000000000000000000000042000000200000000000000000000000002000000000000000000020000000000000000000000000000000000000000000000000000000000000000000",
      "type": "0x2",
      "transactionHash": "0xedc51f2cad4f736e6ab004dfd9a71473cc753d7cd489205e72e841a9dffd68ae",
      "transactionIndex": "0x0",
      "blockHash": "0x9835fb8d13ff0fe6fe0020fe4da7464e3ef6a14daa03e39ed8fa8d5aed02d18b",
      "blockNumber": "0x6",
      "gasUsed": "0x10b40",
      "effectiveGasPrice": "0x204ace0e",
      "blobGasPrice": "0x1",
      "from": "0xf39fd6e51aad88f6f4ce6ab8827279cfffb92266",
      "to": "0x5fbdb2315678afecb367f032d93f642f64180aa3",
      "contractAddress": null
    },
    {
      "status": "0x1",
      "cumulativeGasUsed": "0x1c05f",
      "logs": [
        {
          "address": "0x5fbdb2315678afecb367f032d93f642f64180aa3",
          "topics": [
            "0x8c5be1e5ebec7d5bd14f71427d1e84f3dd0314c0f7b2291e5b200ac8c7c3b925",
            "0x000000000000000000000000f39fd6e51aad88f6f4ce6ab8827279cfffb92266",
            "0x0000000000000000000000005fc8d32690cc91d4c39d9d3abcbd16989f875707"
          ],
          "data": "0x000000000000000000000000000000000000000000000000a688906bd8b00000",
          "blockHash": "0x9835fb8d13ff0fe6fe0020fe4da7464e3ef6a14daa03e39ed8fa8d5aed02d18b",
          "blockNumber": "0x6",
          "blockTimestamp": "0x6a29a0e8",
          "transactionHash": "0x7c54f28123e60b144f844ffcd40de5fbe6a014cc969db4a57975c03889e55cb3",
          "transactionIndex": "0x1",
          "logIndex": "0x1",
          "removed": false
        }
      ],
      "logsBloom": "0x00000000000000000000000000000000000000000000000000000000000000000000000000000000000000000000000040000000000000000000000000200000000000000000000000000000000000000000000000000000000000000000000000000040000000000000000100000000000000000000000000000000000000000000000000000000000000000000000000000000000000000000000200000000120000000000000000000000000000000000000000000000000000000000000000000040000000200000000000000000000000002000001000000000000000000010000000000000000000000000000000000000000000000000000000000000",
      "type": "0x2",
      "transactionHash": "0x7c54f28123e60b144f844ffcd40de5fbe6a014cc969db4a57975c03889e55cb3",
      "transactionIndex": "0x1",
      "blockHash": "0x9835fb8d13ff0fe6fe0020fe4da7464e3ef6a14daa03e39ed8fa8d5aed02d18b",
      "blockNumber": "0x6",
      "gasUsed": "0xb51f",
      "effectiveGasPrice": "0x204ace0e",
      "blobGasPrice": "0x1",
      "from": "0xf39fd6e51aad88f6f4ce6ab8827279cfffb92266",
      "to": "0x5fbdb2315678afecb367f032d93f642f64180aa3",
      "contractAddress": null
    },
    {
      "status": "0x1",
      "cumulativeGasUsed": "0x1a7d8",
      "logs": [
        {
          "address": "0x5fc8d32690cc91d4c39d9d3abcbd16989f875707",
          "topics": [
            "0x9a98994924b3f454e430a7e3c884aa145467ff2913f30a4b4c428a25797c7975",
            "0x0000000000000000000000000000000000000000000000000000000000000001",
            "0x000000000000000000000000f39fd6e51aad88f6f4ce6ab8827279cfffb92266"
          ],
          "data": "0x000000000000000000000000000000000000000000000000a688906bd8b00000000000000000000000000000000000000000000000000000a688906bd8b00000",
          "blockHash": "0xabee94838981e3df06a9cb8f09d6531f4ecf21632e5b0f25b7348bbef394dfeb",
          "blockNumber": "0x7",
          "blockTimestamp": "0x6a29a0e8",
          "transactionHash": "0x06e2890212576a9d9253e82fc533c0b169cc6ae16a5f86e5e5532e85a8f7a4a0",
          "transactionIndex": "0x0",
          "logIndex": "0x0",
          "removed": false
        },
        {
          "address": "0x5fbdb2315678afecb367f032d93f642f64180aa3",
          "topics": [
            "0xddf252ad1be2c89b69c2b068fc378daa952ba7f163c4a11628f55a4df523b3ef",
            "0x000000000000000000000000f39fd6e51aad88f6f4ce6ab8827279cfffb92266",
            "0x0000000000000000000000005fc8d32690cc91d4c39d9d3abcbd16989f875707"
          ],
          "data": "0x000000000000000000000000000000000000000000000000a688906bd8b00000",
          "blockHash": "0xabee94838981e3df06a9cb8f09d6531f4ecf21632e5b0f25b7348bbef394dfeb",
          "blockNumber": "0x7",
          "blockTimestamp": "0x6a29a0e8",
          "transactionHash": "0x06e2890212576a9d9253e82fc533c0b169cc6ae16a5f86e5e5532e85a8f7a4a0",
          "transactionIndex": "0x0",
          "logIndex": "0x1",
          "removed": false
        },
        {
          "address": "0xdc64a140aa3e981100a9beca4e685f962f0cf6c9",
          "topics": [
            "0xbf05e1cf2347c8f6a6c63f13c66a0b87ee6ebc0fe088327380f5073bd9f14021",
            "0x0000000000000000000000000000000000000000000000000000000000000001"
          ],
          "data": "0x00000000000000000000000000000000000000000000000000000000000000010000000000000000000000000000000000000000000000000000000000000002",
          "blockHash": "0xabee94838981e3df06a9cb8f09d6531f4ecf21632e5b0f25b7348bbef394dfeb",
          "blockNumber": "0x7",
          "blockTimestamp": "0x6a29a0e8",
          "transactionHash": "0x06e2890212576a9d9253e82fc533c0b169cc6ae16a5f86e5e5532e85a8f7a4a0",
          "transactionIndex": "0x0",
          "logIndex": "0x2",
          "removed": false
        }
      ],
      "logsBloom": "0x00000040000000000000000000000000000000000000000000000100000000000000000000000000000000000000000040000000000000000000000000040000004000000000000000000008000000004000000240040000000000000000000000000040000000000000000100000000000000000000000000000010000000000000000000000000000000000000000000000000000000000000000200000000100000000000000000000000000000000000000000000000000000000000000000000042000000200000000000000200000000002020011000000001000040000000000000000000000000000000000000000001000000000100000000000000",
      "type": "0x2",
      "transactionHash": "0x06e2890212576a9d9253e82fc533c0b169cc6ae16a5f86e5e5532e85a8f7a4a0",
      "transactionIndex": "0x0",
      "blockHash": "0xabee94838981e3df06a9cb8f09d6531f4ecf21632e5b0f25b7348bbef394dfeb",
      "blockNumber": "0x7",
      "gasUsed": "0x1a7d8",
      "effectiveGasPrice": "0x1c495c99",
      "blobGasPrice": "0x1",
      "from": "0xf39fd6e51aad88f6f4ce6ab8827279cfffb92266",
      "to": "0x5fc8d32690cc91d4c39d9d3abcbd16989f875707",
      "contractAddress": null
    }
  ],
  "libraries": [],
  "pending": [],
  "returns": {},
  "timestamp": 1781113064297,
  "chain": 31337,
  "commit": null
}